{
  "contractName": "Funder",
  "abi": [
    {
      "inputs": [],
      "name": "numOfFunder",
      "outputs": [
        {
          "internalType": "uint256",
          "name": "",
          "type": "uint256"
        }
      ],
      "stateMutability": "view",
      "type": "function",
      "constant": true
    },
    {
      "stateMutability": "payable",
      "type": "receive",
      "payable": true
    },
    {
      "inputs": [],
      "name": "transfer",
      "outputs": [],
      "stateMutability": "payable",
      "type": "function",
      "payable": true
    },
    {
      "inputs": [
        {
          "internalType": "uint256",
          "name": "withdrawAmount",
          "type": "uint256"
        }
      ],
      "name": "withdraw",
      "outputs": [],
      "stateMutability": "nonpayable",
      "type": "function"
    }
  ],
  "bytecode": "0x608060405234801561001057600080fd5b506102f6806100206000396000f3fe6080604052600436106100385760003560e01c80632e1a7d4d146100445780635631d9621461006d5780638a4068dd146100985761003f565b3661003f57005b600080fd5b34801561005057600080fd5b5061006b600480360381019061006691906101c6565b6100a2565b005b34801561007957600080fd5b50610082610130565b60405161008f9190610202565b60405180910390f35b6100a0610136565b005b60028111156100e6576040517f08c379a00000000000000000000000000000000000000000000000000000000081526004016100dd906102a0565b60405180910390fd5b3373ffffffffffffffffffffffffffffffffffffffff166108fc829081150290604051600060405180830381858888f1935050505015801561012c573d6000803e3d6000fd5b5050565b60005481565b33600160008054815260200190815260200160002060006101000a81548173ffffffffffffffffffffffffffffffffffffffff021916908373ffffffffffffffffffffffffffffffffffffffff160217905550565b600080fd5b6000819050919050565b6101a381610190565b81146101ae57600080fd5b50565b6000813590506101c08161019a565b92915050565b6000602082840312156101dc576101db61018b565b5b60006101ea848285016101b1565b91505092915050565b6101fc81610190565b82525050565b600060208201905061021760008301846101f3565b92915050565b600082825260208201905092915050565b7f796f752063616e6e6f7420776974686472617720616d6d6f756e74206d6f726560008201527f207468616e203220455448000000000000000000000000000000000000000000602082015250565b600061028a602b8361021d565b91506102958261022e565b604082019050919050565b600060208201905081810360008301526102b98161027d565b905091905056fea264697066735822122080e30f84ede2575602ab4b8412c469febdb2400afd5b85f13188c92b5203761064736f6c63430008110033",
  "immutableReferences": {},
  "source": "// SPDX-License-Identifier: MIT\r\npragma solidity <=0.8.17;\r\n\r\ncontract Funder{\r\n\r\nuint public numOfFunder;\r\n mapping(uint=>address) private funders;\r\n\r\n receive() external payable{}\r\n\r\nfunction transfer() external payable{\r\n\r\n     funders[numOfFunder]=msg.sender;\r\n\r\n}\r\n\r\nfunction withdraw (uint withdrawAmount) external{\r\n     require(withdrawAmount<=2,\"you cannot withdraw ammount more than 2 ETH\");\r\n\r\n     payable(msg.sender).transfer(withdrawAmount);\r\n}\r\n\r\n}",
  "sourcePath": "D:\\BlockChain\\fund improved\\funds\\blockchainapp\\contracts\\Funder.sol",
  "compiler": {
    "name": "solc",
    "version": "0.8.17+commit.8df45f5f.Emscripten.clang"
  },
  "schemaVersion": "3.4.10",
  "updatedAt": "2022-12-06T07:34:03.406Z",
  "networkType": "ethereum",
  "devdoc": {
    "kind": "dev",
    "methods": {},
    "version": 1
  },
  "userdoc": {
    "kind": "user",
    "methods": {},
    "version": 1
  }
}